:04000000FEEF3FF0E0
:107E1C000001B3EF3FF0016E600007F0F1FE3E0190
:107E2C00F88FF881120044EC3FF084EC3FF038EC12
:107E3C003FF056EC3FF012003E01F051046E036A25
:107E4C00EF510324016E000E0420026E12003E015D
:107E5C00F8A133EF3FF036EF3FF0010E37EF3FF074
:107E6C00000E1200620E3901D96F000EDB6F000E8E
:107E7C00DD6F050EDF6F000EDE6F1200000E390194
:107E8C00C06F000EC16F000EC26F000EC36F000EEC
:107E9C00C46F000EC56F000EC66F000EC76F1200C8
:107EAC00000E3E01DE6F000EDF6F000EE06F000E65
:107EBC00E16F000EE46F000EE56F000EEA6F000E2E
:107ECC00EC6F000EF16F000EF36F000EF46F000EEE
:107EDC00F56F000EF66F000EF76F000EF96F000EC7
:107EEC00FA6F000EFB6F000EFC6F000EFD6F000EA4
:107EFC00FE6F050EFF6F840EF86F1200000EBA6E47
:107F0C00000EBB6E000EBC6E010EC26EC00EC36EB8
:107F1C00000EC46E3A01606950694069000E816FB1
:107F2C00000E516F000E416F000E616F000E5A6F04
:107F3C00000E5B6F000E6A6F000E6B6F000E426FCF
:107F4C00000E526F000E626F436953696369446996
:107F5C0054696469080E846F120019EC3FF0000E2E
:107F6C00CAB0010E11EC3FF02DEC3FF00009D8B473
:107F7C00C2EF3FF0C4EF3FF0BAEF3FF022EC3FF01E
:107F8C0001C005F002C006F06D0E055C040E06582B
:107F9C00D8B0D3EF3FF0D5EF3FF0D6EF3FF0BC8E2B
:107FAC00740E055C040E0658D8A0DFEF3FF0E1EF2D
:107FBC003FF0E2EF3FF0BC9E4D0E055C050E0658FF
:107FCC00D8B0EBEF3FF0EDEF3FF0EEEF3FF0BC88B9
:107FDC00620E055C060E0658D8A0F7EF3FF0F9EFDD
:107FEC003FF0B5EF3FF0BC98B5EF3FF0FEEF3FF040
:047FFC000EEF3FF055
:020000040020DA
:10000000FF0FFF0FFF0FFF0FFF0FFF0FFF0FFF0F80
:020000040030CA
:0A000000ECFFF7DC9FFFFFFFFFFF9E
:00000001FF
